:100000000C942A000C94F6070C94F6070C94F6074F
:100010000C94F6070C94F6070C94F6070C94F6076C
:100020000C94F6070C94F6070C94F6070C94F6075C
:100030000C94F6070C94F6070C94F6070C94F6074C
:100040000C94F6070C94F6070C94F6070C94F6073C
:100050000C94F60711241FBECFE5D8E0DEBFCDBF5C
:0C0060000E9458000C947607F894FFCF23
:10006C00656E7465722070617373776F72643A2079
:10007C000077656C65636F6D650057726F6E6720F6
:09008C0050617373776F72640018
:10009500020504030203070605033738392F3435F3
:0A00A500362A3132332D41303D2B55
:1000B000CF93DF93CDB7DEB7E0970FB6F894DEBFEE
:1000C0000FBECDBF0E94E4040E94CB070E94B90777
:1000D00081E3898382E38A8383E38B832CE630E0A8
:1000E00040E081E1F901DE011796742F0E94690753
:1000F0002DE730E040E089E0F901DE015896742FE9
:100100000E94690726E830E040E08FE0F901DE0157
:100110009196742F0E9469078FEF88AB10E0E12C55
:100120000E94C2050E9481072FEF81EE94E02150CA
:1001300080409040E1F700C00000CE0107960E9489
:100140005C0760E081E00E94B306F12C11C004E07E
:1001500010E00C0F1D1F0F0D111DC8010E9444015E
:10016000F80180818F3F99F30E945202F39410E0CE
:10017000F2E0FF1560F720E014C0822F90E0E4E089
:10018000F0E0EC0FFD1FE80FF91F3081E1E0F0E037
:10019000EC0FFD1FE80FF91F8081381301C01F5FAE
:1001A0002F5F233050F32FEF80E792E02150804003
:1001B0009040E1F700C00000133041F50E94810734
:1001C00065E081E00E94B306CE0148960E945C077C
:1001D0000E9495078AE50E941907EFEFF3ED20E3EF
:1001E000E150F0402040E1F700C0000080E00E94B4
:1001F00019070E94F0078FEF93ECE9E081509040DF
:10020000E040E1F700C00000E12C34C00E949507F7
:1002100080E00E941907FFEF29E688E1F1502040B5
:100220008040E1F700C000000E94F0070E94C20574
:100230000E94810762E081E00E94B306CE018196B0
:100240000E945C07E39493E0E91214C00E94D10776
:100250000E94BF07CE01C0960E94440188A98F3F2B
:1002600031F00E94C5070E94D707E12C03C08F3FE1
:1002700069F3E12CEFEFF3ED20E3E150F040204093
:08028000E1F700C000004CCFC3
:100288008F929F92AF92BF92CF92DF92EF92FF929E
:100298000F931F93CF93DF930F92CDB7DEB76C0107
:1002A8008FEFF6018083A12C6FC0EA2CF12CC701D7
:1002B8000196092E000CAA0B8B569F4FAF4FFC01DD
:1002C8009490A7FD908040E0692D82E00E94A603EB
:1002D800B12C50C081E089830B2D10E0C80106962F
:1002E800092E000CAA0B8B569F4FAF4FFC01849030
:1002F800A7FD8080AE014F5F5F4F682D83E00E94AD
:10030800F8058981811135C08FE39CE90197F1F7E0
:1003180000C00000AE014F5F5F4F682D83E00E9470
:10032800F8058981811125C0C701880F991F880F99
:10033800991F800F911F0A96092E000CAA0B8B5645
:100348009F4FAF4FFC018491A7FD8081F601808308
:100358000DC0AE014F5F5F4F682D83E00E94F80526
:100368008FE39CE90197F1F700C000008981882399
:1003780081F3B39493E09B1508F0ACCF41E0692D6D
:1003880082E00E94A603A394E3E0EA1508F08DCF6B
:100398000F90DF91CF911F910F91FF90EF90DF9019
:0C03A800CF90BF90AF909F908F90089571
:1003B400CF93C82F482F441F4427441F64E081E093
:1003C4000E94A603C6FB442740F962E081E00E9434
:1003D400A603C5FB442740F961E081E00E94A6031F
:1003E400C4FB442740F960E081E00E94A60340E09A
:1003F40063E080E00E94A60341E062E080E00E94A6
:10040400A6038FE99FE00197F1F700C0000040E0E8
:1004140062E080E00E94A6038FE99FE00197F1F774
:1004240000C00000C3FB442740F964E081E00E945F
:10043400A603C2FB442740F962E081E00E94A603C0
:10044400C1FB442740F961E081E00E94A6034C2FE0
:10045400417060E081E00E94A60340E063E080E038
:100464000E94A60341E062E080E00E94A6038FE9B7
:100474009FE00197F1F700C0000040E062E080E0F7
:100484000E94A6038FE99FE00197F1F700C00000E6
:100494008FEC97E00197F1F700C00000CF91089529
:1004A400CF93C82F482F441F4427441F64E081E0A2
:1004B4000E94A603C6FB442740F962E081E00E9443
:1004C400A603C5FB442740F961E081E00E94A6032E
:1004D400C4FB442740F960E081E00E94A60341E0A8
:1004E40063E080E00E94A60341E062E080E00E94B5
:1004F400A6038FE99FE00197F1F700C0000040E0F8
:1005040062E080E00E94A6038FE99FE00197F1F783
:1005140000C00000C3FB442740F964E081E00E946E
:10052400A603C2FB442740F962E081E00E94A603CF
:10053400C1FB442740F961E081E00E94A6034C2FEF
:10054400417060E081E00E94A60341E063E080E046
:100554000E94A60341E062E080E00E94A6038FE9C6
:100564009FE00197F1F700C0000040E062E080E006
:100574000E94A6038FE99FE00197F1F700C00000F5
:100584008FEC97E00197F1F700C00000CF91089538
:1005940010C00E94AB0758F00E94A40740F029F451
:1005A4005F3F29F00C94DD0751110C94B3070C94B0
:1005B400F3070E94D50668F39923B1F3552391F309
:1005C400951B550BBB27AA2762177307840738F0BE
:1005D4009F5F5F4F220F331F441FAA1FA9F335D01B
:1005E4000E2E3AF0E0E832D091505040E695001CCF
:1005F400CAF72BD0FE2F29D0660F771F881FBB1F89
:10060400261737074807AB07B0E809F0BB0B802D66
:10061400BF01FF2793585F4F3AF09E3F510578F092
:100624000C94DD070C94B3075F3FE4F3983ED4F3D6
:10063400869577956795B795F7959F5FC9F7880F66
:10064400911D9695879597F90895E1E0660F771FB8
:10065400881FBB1F621773078407BA0720F0621B49
:0E066400730B840BBA0BEE1F88F7E095089518
:10067200813001F130F08230B1F1833009F44CC0A5
:10068200089541110CC02AB381E090E002C0880FA6
:10069200991F6A95E2F7809582238ABB08952AB34F
:1006A20081E090E002C0880F991F6A95E2F7822BE1
:1006B2008ABB089541110CC027B381E090E002C0CB
:1006C200880F991F6A95E2F78095822387BB089568
:1006D20027B381E090E002C0880F991F6A95E2F784
:1006E200822B87BB089541110CC024B381E090E0B6
:1006F20002C0880F991F6A95E2F78095822384BB16
:10070200089524B381E090E002C0880F991F6A9592
:10071200E2F7822B84BB089541110CC021B381E022
:1007220090E002C0880F991F6A95E2F780958223B4
:1007320081BB089521B381E090E002C0880F991F28
:0A0742006A95E2F7822B81BB08954F
:10074C00813001F130F08230B1F1833009F44CC0CA
:10075C00089541110CC02BB381E090E002C0880FCA
:10076C00991F6A95E2F7809582238BBB08952BB372
:10077C0081E090E002C0880F991F6A95E2F7822B06
:10078C008BBB089541110CC028B381E090E002C0EE
:10079C00880F991F6A95E2F78095822388BB08958C
:1007AC0028B381E090E002C0880F991F6A95E2F7A8
:1007BC00822B88BB089541110CC025B381E090E0D9
:1007CC0002C0880F991F6A95E2F78095822385BB3A
:1007DC00089525B381E090E002C0880F991F6A95B7
:1007EC00E2F7822B85BB089541110CC022B381E046
:1007FC0090E002C0880F991F6A95E2F780958223DA
:10080C0082BB089522B381E090E002C0880F991F4B
:0A081C006A95E2F7822B82BB089573
:100826000FC00E94A40738F00E94AB0720F0952362
:1008360011F00C94DD070C94F30711240C94B30704
:100846000E94D50670F3959FC1F3950F50E0551F92
:10085600629FF001729FBB27F00DB11D639FAA270F
:10086600F00DB11DAA1F649F6627B00DA11D661F5E
:10087600829F2227B00DA11D621F739FB00DA11D7F
:10088600621F839FA00D611D221F749F3327A00D39
:10089600611D231F849F600D211D822F762F6A2FD5
:1008A60011249F5750409AF0F1F088234AF0EE0F3A
:1008B600FF1FBB1F661F771F881F91505040A9F767
:1008C6009E3F510580F00C94DD070C94B3075F3F03
:1008D600E4F3983ED4F3869577956795B795F795A3
:1008E600E7959F5FC1F7FE2B880F911D969587951B
:0408F60097F90895D1
:1008FA0011C00E94A40738F00E94AB0720F039F417
:10090A009F3F19F426F40C94F3070EF4E095E7FBE5
:10091A000C94DD07E92F0E94D50658F3BA1762072F
:10092A0073078407950720F079F4A6F50C94B207AB
:10093A000EF4E0950B2EBA2FA02D0B01B9019001F0
:10094A000C01CA01A0011124FF27591B99F0593F34
:10095A0050F4503E68F11A16F040A22F232F342F7C
:10096A004427585FF3CF469537952795A795F040CA
:10097A005395C9F77EF41F16BA0B620B730B840BDF
:10098A00BAF09150A1F0FF0FBB1F661F771F881F97
:10099A00C2F70EC0BA0F621F731F841F48F48795EF
:1009AA0077956795B795F7959E3F08F0B0CF9395E1
:0E09BA00880F08F09927EE0F979587950895FE
:1009C8002FEF81EE94E0215080409040E1F700C085
:1009D800000041E064E081E00E94390341E062E008
:1009E80081E00E94390341E061E081E00E9439031F
:1009F80041E060E081E00E94390341E063E080E08B
:100A08000E94390341E062E080E00E94390382E0FD
:100A18000E94DA018FE19EE40197F1F700C000001F
:100A280088E20E94DA018FEC97E00197F1F700C0A5
:100A380000008EE00E94DA018FEC97E00197F1F751
:100A480000C0000081E00E94DA018FE19EE4019776
:100A5800F1F700C0000086E00E94DA018FEC97E011
:0A0A68000197F1F700C000000895A7
:100A7200CF92DF92EF92FF92CF93DF93EC016A0164
:100A82007B0120E030E048EC52E4C701B6010E944D
:100A9200E307181694F19E0140E050E060E970ED22
:100AA20083E090E00E94F7062150310937BD26BD50
:100AB20066B577B56F5F7F4F80E090E00E94850555
:100AC200A70196010E94EC0720E030E048EC52E4D6
:100AD2000E94E80720E030E040E85FE30E949D07C3
:100AE2000E9460067BBD6ABD8EB581608EBD8EB5EB
:100AF20082608EBD8EB58B7F8EBDDF91CF91FF90D0
:080B0200EF90DF90CF90089501
:100B0A00E89409C097FB3EF490958095709561959D
:100B1A007F4F8F4F9F4F9923A9F0F92F96E9BB2753
:100B2A009395F695879577956795B795F111F8CFCF
:100B3A00FAF4BB0F11F460FF1BC06F5F7F4F8F4F3A
:100B4A009F4F16C0882311F096E911C0772321F030
:100B5A009EE8872F762F05C0662371F096E8862FC8
:100B6A0070E060E02AF09A95660F771F881FDAF71F
:0A0B7A00880F9695879597F9089566
:100B8400CF93DF93C0E012C08C2F90E00196092E22
:100B9400000CAA0B8B569F4FAF4FFC016491A7FD2D
:100BA400608141E082E00E943903CF5FC43060F38A
:100BB400C0E017C08C2F90E00696092E000CAA0BFB
:100BC4008B569F4FAF4FFC01D491A7FDD08140E0DD
:100BD4006D2F83E00E9439036D2F83E00E942C0661
:0C0BE400CF5FC43038F3DF91CF9108954B
:100BF000813089F028F08230C9F0833011F10895F6
:100C000089B390E002C0959587956A95E2F7817067
:100C1000FA018083089586B390E002C09595879588
:100C20006A95E2F78170FA018083089583B390E0BA
:100C300002C0959587956A95E2F78170FA018083E5
:100C4000089580B390E002C0959587956A95E2F784
:080C50008170FA018083089510
:100C5800813089F028F08230C9F0833011F108958D
:100C68002BB381E090E002C0880F991F6A95E2F7E4
:100C7800822B8BBB089528B381E090E002C0880FD7
:100C8800991F6A95E2F7822B88BB089525B381E006
:100C980090E002C0880F991F6A95E2F7822B85BB06
:100CA800089522B381E090E002C0880F991F6A95E9
:080CB800E2F7822B82BB0895D4
:100CC0000E94DD0688F09F5798F0B92F9927B751F9
:100CD000B0F0E1F0660F771F881F991F1AF0BA95E0
:100CE000C9F714C0B13091F00E94B207B1E0089585
:100CF0000C94B207672F782F8827B85F39F0B93F77
:100D0000CCF3869577956795B395D9F73EF4909592
:0E0D10008095709561957F4F8F4F9F4F08958E
:100D1E00990F0008550FAA0BE0E8FEEF16161706FE
:100D2E00E807F907C0F012161306E407F50798F066
:100D3E00621B730B840B950B39F40A2661F0232B7F
:100D4E00242B252B21F408950A2609F4A140A695FB
:080D5E008FEF811D811D089536
:100D6600813059F028F0823069F0833081F013C069
:100D760080E8860F0E94DA010EC080EC860F0E9482
:100D8600DA0109C084E9860F0E94DA0104C084ED05
:100D9600860F0E94DA018FEC97E00197F1F700C009
:040DA60000000895AC
:100DAA0057FD9058440F551F59F05F3F71F0479512
:100DBA00880F97FB991F61F09F3F79F087950895F7
:100DCA00121613061406551FF2CF4695F1DF08C016
:100DDA00161617061806991FF1CF86957105610533
:040DEA0008940895CC
:100DEE00A1E21A2EAA1BBB1BFD010DC0AA1FBB1F21
:100DFE00EE1FFF1FA217B307E407F50720F0A21B93
:100E0E00B30BE40BF50B661F771F881F991F1A94FF
:100E1E0069F760957095809590959B01AC01BD0129
:040E2E00CF01089553
:100E3200682F70E080E090E00E94870520E030E0BB
:100E420044E353E40E94E80720E030E040EA50E443
:100E52000E94EC0720E030E040EA50E40E949E0746
:0E0E6200AB01BC0182E390E00E9439050895C7
:100E70008FB58E7F8FBD8FB582608FBD8EB5886038
:100E80008EBD8EB580618EBD8FB58F7B8FBD8FB5CA
:060E900080688FBD08958B
:100E9600092E0394000C11F4882352F0BB0F40F482
:100EA600BF2B11F460FF04C06F5F7F4F8F4F9F4FC2
:020EB60008959D
:100EB800CF93DF93EC0103C00E94520221968881F0
:0A0EC8008111FACFDF91CF91089558
:100ED200992777FD05C005900D920197E1F70895D6
:0A0EE20001900D920197E1F70895C9
:100EEC00EC010E94FB070E94FA07CE010E94FC074E
:060EFC00CE010E94F80780
:100F020081E00E94DA018FE19EE40197F1F700C0CF
:040F1200000008953E
:100F16008EB58E7F8EBD8EB58D7F8EBD8EB58B7F49
:040F26008EBD0895DF
:100F2A0041E065E083E00E9439030E943807089592
:0E0F3A005058BB27AA270E947D040C944B0739
:0E0F480000240A9416161706180609060895C6
:0E0F560000240A9412161306140605060895C8
:0E0F6400E894BB2766277727CB0197F90895FD
:0C0F720041E060E080E00E943903089537
:0C0F7E0041E060E080E00E94A6030895BE
:0C0F8A0040E060E080E00E94A6030895B3
:0C0F960041E061E080E00E943903089512
:0C0FA20041E061E080E00E94A603089599
:0C0FAE0040E061E080E00E94A60308958E
:0C0FBA0097F99F6780E870E060E0089500
:0A0FC6000E948F0608F481E00895F0
:080FD0000E94CA020C944B07B9
:080FD8000E9413040C944B0766
:060FE0000E948B0708953A
:060FE6009FEF80EC08956E
:040FEC000C94000061
:040FF0000E94340027
:020FF40008955E
:020FF60008955C
:020FF80008955A
:00000001FF
